:10000000803102288731D52FFB007B08F5007A303C
:10001000F600F701F70A50309C31D62480312000D9
:10002000E7040800210068082000AA0021006908F0
:100030002000AB0021006A082000AC002A30A0009C
:100040000030A1000730A2009031532080313730BA
:100050002000A0009A30A100A201A20A90315320F2
:1000600080313430FC00F230890B3428FC0B34280A
:10007000210065082000AD00210066082000AE00C8
:10008000210067082000AF002D30A0000030A10043
:100090000730A2009031532080310430FA0005303F
:1000A0008031042080314C30FA0006308031042049
:1000B0008031C030FA00033080310420803131308B
:1000C0002000A0009A30A100A201A20A9031532082
:1000D0008031210062082000B00021006308200068
:1000E000B100210064082000B2003030A0000030D0
:1000F000A100A20190315320803104302000A000E3
:100100009A30A100A20190315320803107302000A5
:10011000A0009A30A100A201903153208031080044
:10012000F230F2009930F3009E3189268031003A96
:10013000031D9B289D2801309E280030FB00790874
:1001400086007A08870001087B06FE397B0681005D
:10015000F530F2009930F3009E3189268031003A63
:10016000031DB328B5280130B6280030FB007908FC
:1001700086007A088700FB0D01087B06FD397B06A7
:10018000810020005E08803AFB0080307B02031D66
:10019000CB2849305D020318CE28D0280130D12861
:1001A0000030FC00790886007A088700FC0DFC0D01
:1001B00001087C06FB397C06810020005C08803A3F
:1001C000FB0080307B02031DE72849305B020318E7
:1001D000EA28EC280130ED280030FC007908860080
:1001E0007A088700FC0DFC0DFC0D01087C06F73930
:1001F0007C06810001302000A0005E08803AFB00F0
:100200007F307B02031D0629ED305D02031C0929A6
:100210000A291A2920005C08803AFB007F307B0203
:10022000031D1429ED305B02031C172918291A2914
:100230002000A00120002008031D1F2921290130D2
:1002400022290030FB00790886007A088700FB0E1F
:1002500001087B06EF397B068100E630F200993019
:10026000F3009E3189268031003A031D38293A294E
:1002700001303B290030FB00790886007A088700AE
:10028000FB0EFB0D01087B06DF397B068100E930A0
:10029000F2009930F3009E3189268031003A031D27
:1002A00052295429013055290030FB007908860075
:1002B0007A088700FB0EFB0DFB0D01087B06BF399A
:1002C0007B068100EC30F2009930F3009E318926E4
:1002D0008031003A031D6D296F29013070290030EB
:1002E000FB00790886007A088700FB0CFB0C0108EC
:1002F0007B067F397B068100753021005302303048
:1003000003195202031885298729013088290030F2
:10031000FB00790886008701413101087B06FE3920
:100320007B0681002000A10103306906031D992985
:100330009A29AA295E08803AFB0080307B02031DBF
:10034000A32932305D02031CA629A729AA2901305E
:100350002000A10020002108031DAF29B129013090
:10036000B2290030FB007908860087014131FB0D7E
:1003700001087B06FD397B068100A2010330690676
:10038000031DC329C429D4295C08803AFB008030AE
:100390007B02031DCD2932305B02031CD029D129F9
:1003A000D42901302000A20020002208031DD929F1
:1003B000DB290130DC290030FB0079088600870149
:1003C0004131FB0DFB0D01087B06FB397B068100EB
:1003D0000130A300FE30F2009930F3009E318926EF
:1003E0008031003A0319F529F629102A0130F2006C
:1003F0009A30F3009E3189268031003A0319012A90
:10040000022A102A3130F2009A30F3009E318926F8
:100410008031003A03190D2A0E2A102A2000A30168
:1004200020002308031D152A172A0130182A00303E
:10043000FB007908860087014131FB0E01087B062D
:10044000EF397B0681006808FB0079088600870188
:100450004131FB0EFB0D01087B069F397B068100B5
:1004600007306906031D352A362A2B2C6C18392AC9
:100470003A2A522AEC183D2A3E2A522A6C19412A5D
:10048000422A522AEC19452A462A522AED18492AAC
:100490004A2A522A6D194D2A4E2A522A6C1E512A76
:1004A000522A2B2CA4015E08803AFB0080307B028C
:1004B000031D5C2A49305D0203185F2A602A772AEF
:1004C00020005D08033EFB0000305E3DFC007C0820
:1004D000803AFD0080307D02031D702A49307B0286
:1004E000031C732A742A772A01302000A4002000FC
:1004F0002408FB00FC017908860087014131010CCA
:10050000FD00FD0C7D0C0139FD007B08FD04FD0D97
:10051000FD0DFD0D01087D06F7397D068100A50161
:100520005C08803AFB0080307B02031D992A493029
:100530005B0203189C2A9D2AB42A20005B08033E14
:10054000FB0000305C3DFC007C08803AFD00803000
:100550007D02031DAD2A49307B02031CB02AB12A5B
:10056000B42A01302000A50020002508FB00FC0172
:100570007908860087014131010CFD00FD0C7D0CDE
:100580000139FD007B08FD04FD0DFD0DFD0D010889
:100590007D06F7397D068100A6016D0E890C0339B1
:1005A000023A031DD42AD52AF92A5E08803AFB00B4
:1005B00080307B02031DDE2A32305D020318E12AFF
:1005C000E22AF92A20005D08033EFB0000305E3D70
:1005D000FC007C08803AFD0080307D02031DF22A79
:1005E00032307B02031CF52AF62AF92A013020005A
:1005F000A60020002608FB00FC0179088600870180
:100600004131010CFD00FD0C7D0C0139FD007B0822
:10061000FD04FD0DFD0DFD0D01087D06F7397D067C
:100620008100A7016D0E890C0339023A031D192BB5
:100630001A2B3E2B5C08803AFB0080307B02031DA6
:10064000232B32305B020318262B272B3E2B200056
:100650005B08033EFB0000305C3DFC007C08803AF8
:10066000FD0080307D02031D372B32307B02031CDE
:100670003A2B3B2B3E2B01302000A70020002708FF
:10068000FB00FC017908860087014131010CFD0067
:10069000FD0C7D0C0139FD007B08FD04FD0DFD0DF9
:1006A000FD0D01087D06F7397D068100A8016D0E5C
:1006B000890C0339023A031D5E2B5F2B6F2B5C08FC
:1006C000803AFB0080307B02031D682B32305B02D6
:1006D000031C6B2B6C2B6F2B01302000A80020001B
:1006E0002808FB00FC017908860087014131010CD4
:1006F000FD007D0C0139FD007B08FD04FD0DFD0DA5
:1007000001087D06FB397D068100A9016D0E890C6B
:100710000339023A031D8D2B8E2B9E2B5E08803AE7
:10072000FB0080307B02031D972B32305D02031CDF
:100730009A2B9B2B9E2B01302000A900200029081A
:10074000FB00FC017908860087014131010C013969
:10075000FD007B08FD04FD0D01087D06FD397D06C9
:100760008100AA015E08803AFB007F307B02031DF6
:10077000BB2BED305D02031CBE2BBF2BD62B200004
:100780005D08FD3EFB00FF305E3DFC007C08803ACA
:10079000FD007F307D02031DCF2BED307B0203185F
:1007A000D22BD32BD62B01302000AA0020002A0800
:1007B000FB00FC017908860087014131010CFD0036
:1007C000FD0C7D0C0139FD007B08FD04FD0DFD0DC8
:1007D000FD0D01087D06F7397D068100AB015C083F
:1007E000803AFB007F307B02031DF82BED305B026B
:1007F000031CFB2BFC2B132C20005B08FD3EFB0095
:10080000FF305C3DFC007C08803AFD007F307D02BB
:10081000031D0C2CED307B0203180F2C102C132C15
:1008200001302000AB0020002B08FB00FC01790800
:10083000860087014131010CFD00FD0C7D0C013962
:10084000FD007B08FD04FD0DFD0DFD0D01087D067D
:10085000F7397D0681000800FA0104308031042058
:100860008431210049080319362C372C3C2CC9014E
:100870001C309131F021843121004F082000BF004D
:1008800021004E082000BE003F08EB003E08EA00B1
:100890006A30F9000030FA00803190208431200065
:1008A0006803031D542C552C5C2C61080319592C2A
:1008B0005A2C5C2C0130DF00023021005B02031C4B
:1008C000622C632C652C0130D6005708031D692C5F
:1008D0006A2C3A2D20005F08031D6F2C702C3A2DD6
:1008E00019309B312D2384312000C700C6016C08CC
:1008F0000139BB000730BB35890B7B2C3B08C60494
:100900006C0C0139BB000630BB35890B842C3B08CD
:10091000C6046C0C890C0139BB000530BB35890B52
:100920008E2C3B08C6046C0CBB00BB0C3B0C013985
:10093000BC000430BC35890B9A2C3C08C6046C0EF4
:100940000139BB000330BB35890BA32C3B08C6041F
:100950006C0E890C0139BB000230BB35890BAD2C04
:100960003B08C6046C0E890C890C0139BB000130B0
:10097000BB35890BB82C3B08C6046C0D6C0D0139D6
:10098000C604C5016D080139BB000730BB35890BB2
:10099000C62C3B08C5046D0C0139BB000630BB35C5
:1009A000890BCF2C3B08C5046D0C890C0139BB00A9
:1009B0000530BB35890BD92C3B08C5046D0CBB0039
:1009C000BB0C3B0C0139BC000430BC35890BE52C59
:1009D0003C08C5046D0E0139BB000330BB35890BE3
:1009E000EE2C3B08C504210056082000BB00023055
:1009F000BB35890BF82C3B08C5046D0E890C0339F7
:100A0000C5044608F00047089D3145258431200083
:100A10004508F0004708013E9D31452584312000FE
:100A20004708023E9131F021843120302000C4007B
:100A300047080B3EBB00003003180130BC003C08E7
:100A4000803ABD0081303D02031D282D00303B025D
:100A500003182B2D2C2D302D20004708063EC400F6
:100A600020004408F00019309D31452584310130C3
:100A70002100D70021005608031D3F2D402D452D94
:100A800020006D1E442D452DCA2D9D310C2584312D
:100A9000FA010430803104208431200067080319F2
:100AA000522D532D592D9B315123843195316E2573
:100AB000843120006808031D5E2D5F2D622D0130FA
:100AC000D3006B2D0030D2000030D1000030D000B8
:100AD0000030CF00D3015208031D7A2D5108031DA9
:100AE0007A2D5008031D7A2D04304F02031C792DF6
:100AF0007A2D7B2D010020006D1E7F2D802D982DDD
:100B00000430A000F430A1000130A200F430A300B2
:100B10000130A400E830A5000330A600E830A700AB
:100B20000330A800A90110308D31EF258431AF2D9D
:100B30000430A000F430A1000130A200F430A30082
:100B40000130A400E830A5000330A600E830A7007B
:100B50000330A800A9010F308D31EF2584319B317E
:100B600039238431003A0319B62DB72DC32D200047
:100B700058080319BC2DBD2DC32D0130D4070030FA
:100B8000D53DD63DD73D64009E315F26843120009F
:100B9000E800482D6A18CD2DCE2D822EEA18D12DD1
:100BA000D22D822E6A19D52DD62D822EEA19D92D55
:100BB000DA2D822E6A1ADD2DDE2D822EEA1AE12D23
:100BC000E22D822E6A1BE52DE62D822EEA1BE92DF1
:100BD000EA2D822E6B18ED2DEE2D822EEB18F12DC5
:100BE000F22D822E6B19F52DF62D822EEB19F92D93
:100BF000FA2D822E68080319FE2DFF2D0A2E5F089C
:100C00000319032E042E822E02306806031D092EBE
:100C10000A2E822E210052085304031D102E112E7D
:100C2000822E20005308031D162E172E212E003071
:100C3000D2000030D1000030D0000030CF000130B1
:100C4000D30021003A08031D262E272E322E003015
:100C5000B9000030B8000030B7000030B6000130F5
:100C6000BA00862E3A080319362E372E862E3908FA
:100C7000031D462E3808031D462E3708031D462E39
:100C80005F303602031C452E462E862E2000530868
:100C900003194B2E4C2E862E5208031D5B2E510835
:100CA000031D5B2E5008031D5B2E04304F02031CF6
:100CB0005A2E5B2E862E2100BA012000CE01210083
:100CC0004D082000C10021004C082000C000410850
:100CD000ED004008EC0021004B082000C30021007B
:100CE0004A082000C2004308EB004208EA009D3198
:100CF0000C2584312000DF012100D70102302000C3
:100D0000E900D42F2100BA012000D30120006C1883
:100D10008A2E8B2E9B2E6C198E2E8F2E9B2EEC19CD
:100D2000922E932E9B2EED18962E972E9B2E6D1D98
:100D30009A2E9B2EB12E0630A000F430A100013077
:100D4000A200F430A3000130A4000030A500A600EA
:100D50000030A700A800A90100308D31EF258431B3
:100D60008B2FEC1CB42EB52ECD2E0430A000F43009
:100D7000A1000130A200F430A3000130A400E8304B
:100D8000A5000330A600E830A7000330A800A901A1
:100D900005308D31EF2584318B2FEC1ED02ED12ED6
:100DA000E92E0430A000F430A1000130A200F4309C
:100DB000A3000130A400E830A5000330A600E8300D
:100DC000A7000330A800A90108308D31EF25843138
:100DD0008B2F6C1FEC2EED2E052F0430A000F4306D
:100DE000A1000130A200F430A3000130A400E830DB
:100DF000A5000330A600E830A7000330A800A90131
:100E000009308D31EF2584318B2FEC1F082F092FEE
:100E1000212F0430A000F430A1000130A200F430F2
:100E2000A3000130A400E830A5000330A600E8309C
:100E3000A7000330A800A9010A308D31EF258431C5
:100E40008B2F6D1C242F252F3D2F0430A000F43054
:100E5000A1000130A200F430A3000130A400E8306A
:100E6000A5000330A600E830A7000330A800A901C0
:100E70000B308D31EF2584318B2F6C1E402F412F8D
:100E8000592F0430A000F430A1000130A200F4304A
:100E9000A3000130A400E830A5000330A600E8302C
:100EA000A7000330A800A9010E308D31EF25843151
:100EB0008B2F5F0803195D2F5E2F762FA001A00AEC
:100EC0002C30A1000130A2002C30A3000130A4007E
:100ED000EE30A5000230A600EE30A7000230A800D8
:100EE000A90103308D31EF2584318B2F0430A00010
:100EF000F430A1000130A200F430A3000130A400BE
:100F00000030A500A6000030A700A800A90100300D
:100F10008D31EF25843120004E08031D902F912F35
:100F2000A22F023068060319962F972FA22F0030A8
:100F3000CD000030CC000030CB000030CA000130C2
:100F4000CE00D42F02306806031DA72FA82FAA2F8A
:100F5000CE01D42F4D08031DB82F4C08031DB82F08
:100F600055304A0207304B3B031CB72FB82FD42F04
:100F700020004E080319BD2FBE2FD42F5808031D83
:100F8000C22FC32FD42F5708560455045404031DF1
:100F9000CA2FCB2FD42F023068060319D02FD12FA0
:100FA000D42FCE010130E9000800883100208731BC
:100FB000EE00223084009B308500E2308600003055
:100FC00087000B308831012087314A30840000309F
:100FD000850024309B3102238731A030840000300B
:100FE000850042309B31022387312030840001305C
:100FF000850048309B310223873120008931132935
:101000000134FE0012001E00FE0B022800340730DF
:10101000F2009A30F3009E3189268831003A031D90
:10102000122813286128023020006806031D1928A1
:101030001A2861289B316B238831003A0319212833
:1010400022286128E030F2009930F3009E31892691
:101050008831003A03192D282E2861289331B823AE
:101060008831003A03193528362861289231EF2259
:101070008831003A03193D283E28612800302100BC
:10108000C3000030C2000030C1000030C000013099
:10109000C40007302000A0009A30A100A201A20ADB
:1010A0009031532088312000E1019D310C25883199
:1010B000FF30F4000330F50001309D318225883186
:1010C00008290730F2009A30F3009E3189268831D2
:1010D000003A03196C286D28A12802302000680608
:1010E000031D73287428A1289B316B238831003A93
:1010F00003197B287C28A128E030F2009930F30006
:101100009E3189268831003A031987288828A1282A
:101110009331B8238831003A03198F289028A128E9
:101120009231EF228831003A031997289828A12894
:10113000FF30F4000330F50001309D318225883105
:1011400008299B316B238831003A031DA828A92860
:10115000D32807302000A0009A30A100A2019031CE
:10116000532088312100C4014308031DC1284208CF
:10117000031DC128393040020130413B0318C1280A
:10118000C228CF2801302000E0000230E900003002
:10119000F400F50000309D318225883108290430A3
:1011A0002000E90008299331B8238831003A031957
:1011B000DA28DB28E3289231EF228831003A031D38
:1011C000E228E328FA2807302000A0009A30A10086
:1011D000A2019031532088312100C401FF30F40076
:1011E0000330F50006309D3182258831073020001C
:1011F000E900082907302000A0009A30A100A201D0
:101200009031532088312100C40102302000E900D0
:1012100003302000690603190E290F2912299D3178
:101220000C258831080094312C2489316400033066
:101230009C311D24893107309C311D2489319F3117
:101240005527893196311726893193314B238931BE
:101250009B31AC2389319E315F2689312000E80023
:101260009D31EA25893120003008DE002F08DD009D
:1012700021005D082000C800C9014808A0004908F5
:10128000A10097310A27893120002108DC002008BD
:10129000DB0000309C311D24893101309C311D243C
:1012A000893104309C311D24893103309C311D2447
:1012B000893107309C311D2489319F318D27893137
:1012C0007D082100D3007C08D2009F315527893149
:1012D000003A03196C296D296E29B129200067088D
:1012E0000319732974298E2901302100DB0702308C
:1012F0005B0203187C297D2984299B315123893184
:1013000095316E25893116299B31512389319531CB
:101310006E25893107302000E900B1292100DB0169
:10132000B12994312C248931D42990311720893165
:10133000D4298A3130228931D42988310720893152
:10134000D4299131A3218931D4299A31F0228931CC
:10135000D4298B31FD238931D42984312C2489313E
:10136000D42920006908C800C9014908003A0319B6
:10137000BA29D4294808003A03199129013A0319D6
:101380009529033A03199929013A03199D29073A26
:101390000319A129013A0319A529033A0319A92917
:1013A000013A0319AD29D4299B3139238931003AF7
:1013B0000319DB29DC29162921003F080319E1293B
:1013C000E229E8290130BB070030BC3DBD3DBE3DF0
:1013D00044080319EC29ED29F3290130C007003036
:1013E000C13DC23DC33D20004E080319F829F9292B
:1013F000FF290130CA070030CB3DCC3DCD3D580818
:101400000319032A042A0A2A0130D4070030D53DE3
:10141000D63DD73D21003A0803190F2A102A162A73
:101420000130B6070030B73DB83DB93D4908031952
:101430001A2A1B2A212A0130C5070030C63DC73DA4
:10144000C83D200053080319262A272A16290130EF
:10145000CF070030D03DD13DD23D16298031022842
:1014600020006803031D352A362A5C2A9B3192230B
:101470008A31003A03193D2A3E2A5C2AE030F20004
:101480009930F3009E3189268A31003A0319492A9E
:101490004A2A5C2A20006108031D4F2A502A5C2A30
:1014A0009331B8238A31003A0319572A582A5C2A03
:1014B00006302000E9009B2B20006803031D612AF1
:1014C000622A6B2A6103031D662A672A6B2A07308A
:1014D0002000E9009B2B02306806031D702A712A48
:1014E000AA2A6008031D752A762AAA2A9B316B2333
:1014F0008A31003A03197D2A7E2AAA2AE030F200B6
:101500009930F3009E3189268A31003A0319892ADD
:101510008A2AAA2A9331B8238A31003A0319912AD8
:10152000922AAA2A21006C080319972A982AA02A2D
:101530009031CF208A31003A031D9F2AA02AA62A83
:1015400021006C08031DA52AA62A9B2B033020002E
:10155000E9009B2B200068080319AF2AB02ABB2A98
:1015600002306806031DB52AB62AD72A6008031977
:10157000BA2ABB2AD72A4E08031DBF2AC02AD72A57
:101580009331B8238A31003A0319C72AC82AD72AC7
:1015900000302000CD000030CC000030CB00003007
:1015A000CA000130CE0001302100EC009B2B9331AA
:1015B000B8238A31003A031DDE2ADF2AE02A672A8F
:1015C000023020006806031DE62AE72AF82A600890
:1015D000031DEB2AEC2AF82A9B316B238A31003A4F
:1015E000031DF32AF42AF82A01302000E0009B2B87
:1015F000023020006806031DFE2AFF2A0C2B60081B
:101600000319032B042B0C2B0030F400F5000030E1
:101610009D3182258A319B2B02306806031D112BD8
:10162000122B272BE030F2009930F3009E318926EF
:101630008A31003A03191D2B1E2B272BFF30F40093
:101640000330F50006309D3182258A319B2B200026
:101650006808031D2C2B2D2B7B2B02309031002092
:101660008A31003A0319352B362B392B01302100F2
:10167000DA0021005A0803193E2B3F2B472B9031EB
:10168000CF208A31003A031D462B472B4D2B2100DA
:101690005A08031D4C2B4D2B9B2B2100DA013308DC
:1016A0002000BD00210032082000BC000C303D02AB
:1016B000E43003193C0203185E2B5F2B622B0130D0
:1016C000BB00702B0E303D024C3003193C02031856
:1016D0006A2B6B2B6E2B0230BB00702B0330BB00D0
:1016E0003B08B300DC30B4000530B500063094315F
:1016F000CB248A31D32A6803031D7F2B802B9B2B9D
:10170000E030F2009930F3009E3189268A31003AA8
:1017100003198B2B8C2B9B2B20006108031D912B15
:10172000922B9B2BFF30F4000330F50006309D31E7
:1017300082258A319B2B200060080319A02BA12B46
:10174000AF2B10302100310204300319300203188E
:10175000AA2BAB2BAF2B2000E0012100EC010230C3
:10176000200068060319B52BB62BB72BE0016108E2
:10177000031DBB2BBC2BCD2B9B3192238A31003A0E
:10178000031DC32BC42BCD2B023020006806031988
:10179000CA2BCB2BCD2B0130E10020004D08031DBF
:1017A000DC2B4C08031DDC2BAB304A0203304B3BD7
:1017B000031CDB2BDC2BED2B20004E080319E12B47
:1017C000E22BED2BCE010030CD000030CC000030FC
:1017D000CB000030CA000130E90002302000690669
:1017E0000319F32BF42BFC2BCE019D310C258A31F0
:1017F0002100DA010130EC0008000430F2009A30D8
:10180000F3009E3189268B31003A031D082C092CE8
:101810004A2C20006803031D0E2C0F2C4A2CE030AC
:10182000F2009930F3009E3189268B31003A03197A
:101830001A2C1B2C4A2C9B3192238B31003A031912
:10184000222C232C4A2C9331B8238B31003A0319D4
:101850002A2C2B2C4A2C04302000A0009A30A10006
:10186000A201A20A903153208B312100D9019D3170
:101870000C258B3101302100EB00D8010130C9006B
:1018800000302000D2000030D1000030D000003005
:10189000CF00D92D0430F2009A30F3009E31892612
:1018A0008B31003A0319552C562C472D2000680324
:1018B000031D5B2C5C2C472DE030F2009930F300C7
:1018C0009E3189268B31003A0319672C682C472DED
:1018D0009B3192238B31003A03196F2C702C472DCA
:1018E0009331B8238B31003A0319772C782C472D8C
:1018F00001302100EB00D801033059020318812C7C
:10190000822C1D2D122D01302000D3000430A000A8
:10191000E830A1000330A2000030A300A400003092
:10192000A500A6000030A700A8002030A9000130C3
:101930008D31EF258B3120005208031DAB2C51084F
:10194000031DAB2C5008031DAB2C02304F02031CAF
:10195000AA2CAB2C462D01302100D9079D310C2536
:101960008B31D92D01302000D3000230A000E830A7
:10197000A1000330A2000030A300A4000030A500A5
:10198000A6000030A700A8002030A90001308D314A
:10199000EF258B3120005208031DDA2C5108031D5E
:1019A000DA2C5008031DDA2C02304F02031CD92C0C
:1019B000DA2C462DAB2C01302000D300A001A00A68
:1019C000E830A1000330A2000030A300A4000030E2
:1019D000A500A6000030A700A8002030A900013013
:1019E0008D31EF258B3120005208031D032D510846
:1019F000031D032D5008031D032D02304F02031C4D
:101A0000022D032D462D01302100D9072000D801D9
:101A10000030D7000030D6000030D5000030D400B0
:101A2000D301402C5908003A0319832C013A0319B9
:101A3000B22C033A0319DB2CD92D0C303302803041
:101A4000031932020318252D262D3D2D2000A0015B
:101A5000A00AF430A1000130A200F430A30001304C
:101A6000A4000030A500A6000030A700A800A9012E
:101A700000308D31EF258B31D92DFF30F40003304C
:101A8000F50001309D3182258B31D92DD92D9B3127
:101A900092238B31003A031D4E2D4F2D5E2D0130C8
:101AA0002000E1000430A0009A30A100A201903192
:101AB00053208B3102302000E900D92D9331B82317
:101AC0008B31003A031D652D662D732D04302000E7
:101AD000A0009A30A100A201903153208B31073031
:101AE0002000E900D92D023020006806031D792D61
:101AF0007A2DBC2D0430A0009A30A100A2019031B3
:101B000053208B3101302100EB005808031D892D33
:101B10008A2D932D9D310C258B3101302000D3006F
:101B200001302100D80007302000A000F430A100CF
:101B30000130A200F430A3000130A400E830A50079
:101B40000330A600E830A7000330A800A901013047
:101B50008D31EF258B3120005208031DBB2D51081C
:101B6000031DBB2D5008031DBB2D02304F02031C6B
:101B7000BA2DBB2D462D5A2D0430A0009A30A1005D
:101B8000A201903153208B312100D8016B08031939
:101B9000CA2DCB2DD02D9D310C258B312100EB0191
:101BA00092313E228B31003A0319D72DD82D462D84
:101BB0005A2D0630200069060319DF2DE02DEE2D89
:101BC0002100C9011C309131F0218B312100D90154
:101BD000D8010130EB009D310C258B31080020002D
:101BE000B0005508FA005408F9000530F935FA0D2F
:101BF000890BF62D7908B1007A08B2002908803ADD
:101C00007F3E0318042E052E0A2EFF30AE0003304F
:101C1000AF000C2EAE01AF015808031D102E112E7F
:101C20004B2E2F08F5002E08F40000309D31822540
:101C30008D3100302000D7000030D6000030D500B4
:101C40000030D4000130D80030080319282E292E86
:101C5000352E3008F900FA01F935FA0D7908013E00
:101C6000AA0000307A3DAB00392E0130AA000030C6
:101C7000AB002A08E400E3012608DA002508D900B1
:101C800053080319442E452E4B2E0130CF07003048
:101C9000D03DD13DD23D6308031D4F2E502E6F2EF7
:101CA00032085A02031D562E310859020318592EC4
:101CB0005A2E6F2E0130E30730080319602E612E73
:101CC000692E2F08F5002E08F40020089D3182258A
:101CD0008D3120002108D9072208DA3DF12E640851
:101CE000FF3EF900FF3003180030FA006308790660
:101CF0007A04031D7C2E7D2E972E32085A02031D76
:101D0000832E310859020318862E872E972E013014
:101D1000E3072F08F5002E08F40000309D318225DE
:101D20008D3120002708D9072808DA3DF12E6308F5
:101D30006406031D9C2E9D2EBA2E32085A02031DE6
:101D4000A32E310859020318A62EA72EBA2E2F084B
:101D5000F5002E08F40000309D3182258D312000E1
:101D6000D8010030D7000030D6000030D500003058
:101D7000D400F12E631CBD2EBE2ED82E32085A027E
:101D8000031DC42E310859020318C72EC82ED82EA1
:101D90000130E3072F08F5002E08F40000309D31D4
:101DA00082258D3120002308D9072408DA3DF12E41
:101DB0006318DB2EDC2EF12E32085A02031DE22EB0
:101DC000310859020318E52EE62EF12E0130E30703
:101DD0002F08F5002E08F40020089D3182258D3152
:101DE000692E9D3128258D3171082000AD007008C5
:101DF000AC00A91FFC2EFD2E562F2908F900FA0170
:101E0000F91BFA03F909FA09F90A0319FA0A7A0817
:101E1000803AFB002D08803A7B02031D112F2C080D
:101E200079020318142F152F252F20002908F900F7
:101E3000FA01F91BFA032C087907F0002D087A3D06
:101E4000F1009C315E248D31A32F0030F000F100B1
:101E50009C315E248D3120005A08FA005908F9009F
:101E60000530FA36F90C890B312F7908D4007A083D
:101E7000D500D601D7013003031D3F2F402FA32FDC
:101E8000D8010030D7000030D6000030D500003037
:101E9000D400530803194D2F4E2FA32F0130CF0725
:101EA0000030D03DD13DD23DA32FA32F2908803A49
:101EB0007F3E031C5C2F5D2FA32F2908F900FA0138
:101EC000F91BFA032C087907FB002D087A3DFC006A
:101ED0007C08803AFD0083307D02031D712FFF30A6
:101EE0007B020318742F752F762F152FFF30F0000B
:101EF0000330F1009C315E248D3120005A08FA0035
:101F00005908F9000530FA36F90C890B832F790846
:101F1000013ED40000307A3DD500D601D701300310
:101F2000031D932F942FA32FD8010030D70000302A
:101F3000D6000030D5000030D40053080319A12F7B
:101F4000A22F552F4E2F20003008031DA82FA92F98
:101F5000B72F6303031DAD2FAE2FB72F2108310715
:101F6000D9002208323DDA000230E300FF2F3008AA
:101F7000031DBB2FBC2FDC2F02306306031DC12FB6
:101F8000C22FDC2F32085A02031DC82F3108590214
:101F90000318CB2FCC2FDC2FFF30F4000330F500DB
:101FA00000309D3182258D3120002308D907240877
:101FB000DA3D0330E300FF2F3008031DE02FE12F4F
:101FC000FF2F03306306031DE62FE72FFF2F320894
:101FD0005A02031DED2F310859020318F02FF12F7B
:101FE000FF2FFF30F4000330F50020089D318225DB
:101FF0008D3120002108D9072208DA3DB42F0800CE
:10200000F200F30173089B31852390317206031DA2
:102010000A280B280D28013016280130F307043058
:102020007302031C142815280228003008009D3173
:102030000C2590310D302000A0009A30A100A201A3
:10204000A20A9031532090318530890B2528000059
:102050000D302000A0009A30A100A2019031532041
:1020600090318530890B322800000D302000A0000F
:102070009A30A100A201A20A9031532090310B3076
:102080002000BC002630BB005D30890B4528BB0B0F
:102090004528BC0B4528003295316E2590318031A2
:1020A00012209031080020002008840021088500BB
:1020B0000008A80001302007840021080318013E11
:1020C00085000008A90002302007840021080318B9
:1020D000013E85000008A6002208A300290A7128F5
:1020E000A335890B702826089B31BB239031200033
:1020F000A400290A7C28A435890B7B282408FF3AF0
:10210000A50028089C311D249031200025052304BA
:10211000A7002708FA002808803104209031080021
:102120002000AE0000309A31F82290311E309B31F1
:102130005E239031003200320032003204309B3195
:102140005E239031FB302000A0009930A1002E08C2
:10215000A200903153209031A0300032890BAD287D
:1021600004309C31F124903171082000AD007008DA
:10217000AC00FB30A0009930A100A20190315320A7
:10218000903120002D08FD002C08FC009F311E27F7
:1021900090317D082000AB007C08AA000800323096
:1021A000F6000030F70021003408193EF800003036
:1021B000353DF9009F31C627903176082000B300E5
:1021C0000130D3000630A000FA30A1000030A20098
:1021D000FA30A3000030A400EE30A5000230A600C3
:1021E000F430A7000130A800A90133088D31EF2594
:1021F000903120005208031D09295108031D0929A7
:102200005008031D092902304F02031C082909291F
:102210000E299D310C25903101300F290030080026
:10222000F300210061080319162917291929E10172
:1022300048299B31F42391319E31E8269131F400F5
:102240007408031924292529272974085529730896
:102250009C31482491319E31E8269131F400740874
:102260000319332934294829252971088600870153
:1022700001089C31482491310130F1079E31E82654
:102280009131F40074080319462947294829252962
:102290000130F202720A031D4E294F2935299B3164
:1022A000E02391319E31E82691310800F3009B3103
:1022B000F42391319E31E8269131F400740803191A
:1022C0006229632965297408A229730801389C31A1
:1022D000482491319E31E8269131F40074080319A5
:1022E00072297329882963297108860001308700C3
:1022F0009C313224913181000130F1079E31E82672
:102300009131F400740803198629872988296329E3
:102310000130F202720A031D8E298F2974299C3123
:10232000082491319E31E8269131F4007408031994
:102330009A299B299C2963299B31E02391319E3165
:10234000E82691310800023020006806031DA92903
:10235000AA29B229FF30F4000330F50007309D317F
:102360008225913121003F08031DB729B829C329CF
:102370000030BE000030BD000030BC000030BB00AB
:102380000130BF00D6293E08031DD1293D08031D99
:10239000D1298C303B0208303C3B031CD029D12989
:1023A000D6292100BF0103302000E90002302000BF
:1023B00068060319DC29DD29E2292100BF0102306A
:1023C0002000E9009331B8239131003A031DE92937
:1023D000EA29EF292100BF0107302000E9000800A9
:1023E000F70021004508F3004608F4004708F5000F
:1023F0004808F6001830F636F50CF40CF30C890B8F
:10240000FB297308F00077089D31452591312100A3
:102410004508F3004608F4004708F5004808F600B0
:102420001030F636F50CF40CF30C890B112A7308F6
:10243000F0007708013E9D31452591312100450886
:10244000F3004608F4004708F5004808F600083095
:10245000F636F50CF40CF30C890B282A7308F000FF
:102460007708023E9D314525913121004508F00055
:102470007708033E9D314525913108000530210044
:102480005F020318442A452A492A0130DF07003039
:10249000932A6008031D4D2A4E2A612AC830F6008F
:1024A0000030F7003208483EF800F430333DF900C0
:1024B0009F31C62792317608013E2100DE000130AF
:1024C000E00001302000D3000230A000FA30A1006B
:1024D0000030A200FA30A3000030A400F430A500C0
:1024E0000130A600F430A7000130A800A9012100A6
:1024F0005E088D31EF25923120005208031D8C2A91
:102500005108031D8C2A5008031D8C2A02304F02EB
:10251000031C8B2A8C2A472A9D310C2592312100DD
:10252000DF01E00101300800F501F11F982A992A26
:10253000A02AF009F109F00A0319F10A0130F500A7
:10254000F31FA32AA42AAB2AF209F309F20A0319FA
:10255000F30A0130F506F601F7017008710403195A
:10256000B22AB32AE02A0130F400BD2A0130F03546
:10257000F10D890BB72A0130F407F11FC02AC12AD7
:10258000B62A0130F635F70D890BC22A710873029D
:10259000031DCC2A70087202031CCF2AD02AD52A28
:1025A0007008F2027108F33B76140130F136F00C3A
:1025B000890BD62A0130F402031DDF2AE02AC12A42
:1025C00075080319E42AE52AEA2AF609F709F60A42
:1025D0000319F70A7708F1007608F00008000130C7
:1025E0002000AD005E08803AAC0080302C02031D54
:1025F000FB2A32305D02031CFE2A002B0130012B26
:1026000000302000AD055C08803AAC0080302C0220
:10261000031D0C2B32305B02031C0F2B112B0130DE
:10262000122B00302000AD055E08803AAC007F30F0
:102630002C02031D1D2BED305D020318202B222BD5
:102640000130232B00302000AD055C08803AAC003F
:102650007F302C02031D2E2BED305B020318312B33
:10266000332B0130342B00302000AD052D08031D25
:102670003A2B3B2B482B073069060319402B412B83
:10268000482B6C30F9000030FA00803190209231F4
:1026900020002D0808000130F4000130F500023060
:1026A000F6007635A03E86008701403FF000413FAE
:1026B000F1007435A03E86008701403FF200413FA3
:1026C000F30071087302031D672B70087202031870
:1026D0006A2B6B2B6D2B7608F4007535A03E8600B7
:1026E0008701403FF000413FF1007635A03E860073
:1026F0008701403FF200413FF30071087302031D60
:10270000832B700872020318862B872B892B76087F
:10271000F5000130F60707307602031C902B912B51
:10272000512B74082100AF007435A03E860087014C
:10273000403FB000413FB1007508AE007535A03E86
:1027400086008701403FB200413FB300AE308600B3
:10275000003087004431AE30840000308500023103
:10276000403F0002B4000131413F003BB50008008A
:1027700001302000AD005E08803AAC0080302C02B1
:10278000031DC42B49305D02031CC72BC92B01302C
:10279000CA2B00302000AD055C08803AAC008030C8
:1027A0002C02031DD52B49305B02031CD82BDA2BDE
:1027B0000130DB2B00302000AD055E08803AAC0014
:1027C0007F302C02031DE62BED305D020318E92B50
:1027D000EB2B0130EC2B00302000AD055C08803A7B
:1027E000AC007F302C02031DF72BED305B02031889
:1027F000FA2BFC2B0130FD2B00302000AD05220010
:1028000060080319042C062C0130072C003020002E
:10281000AD05753021005302303003195202031CFC
:10282000122C142C0130152C00302000AD052D0881
:10283000031D1B2C1C2C292C073069060319212C85
:10284000222C292C6C30F9000030FA0080319020C5
:10285000933120002D0808002000E7019C31BD24A1
:1028600094319A31ED22943100309A31F82294312A
:1028700021008D140D1623008D100D129B31512354
:10288000943195316E25943120008D1C482C492CB3
:10289000412C0D1E4C2C4D2C412C9E313626943152
:1028A0002100DD001C309B312D2394312000BB0022
:1028B000BC01BD01BE011830BB35BC0DBD0DBE0D48
:1028C000890B5C2C3E082100C80020003D08210037
:1028D000C70020003C082100C60020003B08210062
:1028E000C5001D309B312D2394312000BB00BC015D
:1028F000BD01BE011030BB35BC0DBD0DBE0D890B39
:102900007B2C3B082100C50420003C082100C604A4
:1029100020003D082100C70420003E082100C80413
:102920001E309B312D2394312000BB00BC01BD0122
:10293000BE010830BB35BC0DBD0DBE0D890B9A2CF8
:102940003B082100C50420003C082100C6042000EB
:102950003D082100C70420003E082100C8041F30A4
:102960009B312D2394312000BB00BC01BD01BE0171
:102970003B082100C50420003C082100C6042000BB
:102980003D082100C70420003E082100C804023091
:102990002000E90008002000B8005508B7005408DE
:1029A000B6000530B635B70D890BD22C3608B90004
:1029B0003708BA005808031DDE2CDF2CF12C9D319E
:1029C0000C25943101302000D8000030D7000030B1
:1029D000D6000030D5000030D400E2012100D00143
:1029E000D10120003308B600B701B635B70D37085E
:1029F000803A803C031DFE2C360862020318012D2C
:102A0000022D5C2D2100510820003A02031D0C2DDF
:102A10002100500820003902031C0F2D102D6D2DB0
:102A20006218132D142D302D3808A0003508B7007A
:102A30003408B600B736B60C3608A1003708A20035
:102A40000030A300A4000030A500A6000030A700BD
:102A5000A8002030A90001308D31EF2594314B2D95
:102A60003808A0003508B7003408B600B736B60CF1
:102A70003608A1003708A2000030A300A4000030EF
:102A8000A500A6000030A700A800E030A900013092
:102A90008D31EF25943101302000E2073508B70071
:102AA0003408B600B736B60C36082100D00720002F
:102AB00037082100D13D6D2D2100510820003A0238
:102AC000031D662D2100500820003902031C692DCA
:102AD0006A2D6D2D9D310C2594310800343086000F
:102AE000003087000730FD0000301E00FD0B752D03
:102AF00021000D0C01392000B40021000D0E013918
:102B00002000B50023000D0C01392000B600230081
:102B10000D0E01392000B70022000D0C01392000F4
:102B2000B80022000D0E01392000B9002400150E56
:102B3000890C01392000BA002400951221008D145F
:102B40000D1623008D100D1222000D122000B3016E
:102B5000C62D21000D120D30890BAC2D0000210077
:102B60000D160630890BB22D003220008D1CB92DB8
:102B7000BA2DC12D0D1EBD2DBE2DC12D0130B307A7
:102B8000C22DB3010630890BC32D00320A3020005C
:102B90003302031CCC2DCD2DA92D3418D02DD32DCF
:102BA00021008D14D52D21008D1020003518D92D30
:102BB000DC2D21000D16DE2D21000D12200036180F
:102BC000E22DE52D23008D14E72D23008D1020002C
:102BD0003718EB2DEE2D23000D16F02D23000D12CE
:102BE00020003818F42DF72D22008D14F92D220025
:102BF0008D1020003918FD2D002E22000D16022EFA
:102C000022000D1220003A18062E092E24009516D7
:102C10000B2E2400951220003A080319102E112EB5
:102C2000142E8031122095312000E7010800013078
:102C300090319020963120002A08AF002B08B00078
:102C4000AF35B00D0E30F00066089B31CD239631C4
:102C5000223E86000130870020002F08C03F300848
:102C6000C13F023090319020963120002A08AF00F9
:102C70002B08B000AF35B00D0E30F00066089B3168
:102C8000CD239631243E86000130870020002F0896
:102C9000C03F3008C13F0330903190209631200072
:102CA0002A08AF002B08B000AF35B00D0E30F00091
:102CB00066089B31CD239631263E86000130870081
:102CC00020002F08C03F3008C13F043090319020D1
:102CD000963120002A08AF002B08B000AF35B00DA8
:102CE0000E30F00066089B31CD239631283E8600D9
:102CF0000130870020002F08C03F3008C13F053059
:102D000090319020963120002A08AF002B08B000A7
:102D1000AF35B00D0E30F00066089B31CD239631F3
:102D20002A3E86000130870020002F08C03F30086F
:102D3000C13F063090319020963120002A08AF0024
:102D40002B08B000AF35B00D0E30F00066089B3197
:102D5000CD2396312C3E86000130870020002F08BD
:102D6000C03F3008C13F0130B700B401B501B60122
:102D70003708AF000130AF35890BBB2E20302F074D
:102D8000B0000E30F00036089B31CD239631200084
:102D90003007B1003108860001308700403FB200A3
:102DA000413FB3003208B4073308B53D0130B607E0
:102DB00004303602031CDD2EDE2EB82E6E08AF0066
:102DC000B0012F08F6003008F7003508F900340884
:102DD000F8009F31C627963120003735A03E860087
:102DE00087017608C03F7708C13F0130B707073039
:102DF0003702031CFC2EFD2EB52E6608013E03395A
:102E0000E60004306E020318062F072F092F013049
:102E1000EE0708002000B4013408A200A301A23587
:102E2000A30DA235A30D0030220784001830233DE6
:102E300080388500003FA400013FA500250821023D
:102E4000031D242F24082002031C272F282FC82FFE
:102E50003408A200A301A235A30DA235A30D0430AE
:102E6000220784001830233D80388500003FA400ED
:102E7000013FA50025082102031D402F2408200240
:102E80000318432F442FC82F3408A200A301A235F2
:102E9000A30DA235A30D0030220784001830233D76
:102EA00080388500003FB000013FB1003408A20027
:102EB000A301A235A30DA235A30D0430220784007F
:102EC0001830233D80388500003FA600013FA70051
:102ED0003408A200A301A235A30DA235A30D023030
:102EE000220784001830233D80388500003FA4006D
:102EF000013FA5002408EC3EB200FF30253DB300A1
:102F00003408A200A301A235A30DA235A30D0630FB
:102F1000220784001830233D80388500003FA4003C
:102F2000013FA5002408EC3EA800FF30253DA90084
:102F300032082802AA003308293BAB0030082602D9
:102F4000AC003108273BAD0030082002AE0031084C
:102F5000213BAF002D08F7002C08F6002B08F100EC
:102F60002A08F0002F08F3002E08F2009D31632597
:102F700097317108F9007008F8009F31C627973122
:102F8000200032087607A0003308773DA100FF2F0C
:102F90000130B4073B303402031CCF2FD02F0C2F4D
:102FA0000030840098308500003FA200013FA3005C
:102FB00023082102031DDE2F220820020318E12F1F
:102FC000E22FF12F0230840098308500003FA200EC
:102FD000013FA3002208EC3EA000FF30233DA100EA
:102FE000FF2FEE30840098308500003FA200013FA3
:102FF000A3002208EC3EA000FF30233DA100080002
:103000002D340034773400342F34003475340034D8
:1030100031340034733400343334003471340034C8
:10302000353400346F340034383400346D340034B7
:103030003A3400346B3400343D34003469340034A5
:103040004034003467340034423400346534003492
:10305000453400346334003449340034613400347E
:103060004C3400345F3400344F3400345D34003469
:10307000533400345B340034573400345934003452
:103080005B340034573400345F340034553400343A
:103090006334003453340034673400345134003422
:1030A0006C3400344F340034703400344D34003408
:1030B000753400344B3400347A34003449340034ED
:1030C0007F340034473400348534003445340034D0
:1030D0008A340034433400349034003441340034B2
:1030E000953400343F3400349B3400343D34003494
:1030F000A13400343B340034A73400343934003474
:10310000AD34003437340034B33400343534003453
:10311000B934003433340034BF3400343134003433
:10312000C63400342F340034CC3400342D34003411
:10313000D23400342B340034D834003429340034F1
:10314000DE34003427340034E434003425340034D1
:10315000EA34003423340034EF34003421340034B2
:10316000F53400341F340034FA3400341D34003494
:10317000FF3400341B340034053401341934003476
:103180000B34013417340034113401341534003455
:1031900017340134133400341D3401341134003435
:1031A000233401340F340034293401340D34003415
:1031B0002F3401340B3400343534013409340034F5
:1031C0003B340134073400344134013405340034D5
:1031D00047340134033400344D34013401340034B5
:1031E0002D340034773400342F34003475340034F7
:1031F00031340034733400343334003471340034E7
:10320000353400346F340034383400346D340034D5
:103210003A3400346B3400343D34003469340034C3
:1032200040340034673400344234003465340034B0
:10323000453400346334003449340034613400349C
:103240004C3400345F3400344F3400345D34003487
:10325000533400345B340034573400345934003470
:103260005B340034573400345F3400345534003458
:103270006334003453340034673400345134003440
:103280006C3400344F340034703400344D34003426
:10329000753400344B3400347A340034493400340B
:1032A0007F340034473400348534003445340034EE
:1032B0008A340034433400349034003441340034D0
:1032C000953400343F3400349B3400343D340034B2
:1032D000A13400343B340034A73400343934003492
:1032E000AD34003437340034B33400343534003472
:1032F000B934003433340034BF3400343134003452
:10330000C63400342F340034CC3400342D3400342F
:10331000D23400342B340034D8340034293400340F
:10332000DE34003427340034E434003425340034EF
:10333000EA34003423340034EF34003421340034D0
:10334000F53400341F340034FA3400341D340034B2
:10335000FF3400341B340034053401341934003494
:103360000B34013417340034113401341534003473
:1033700017340134133400341D3401341134003453
:10338000233401340F340034293401340D34003433
:103390002F3401340B340034353401340934003413
:1033A0003B340134073400344134013405340034F3
:1033B00047340134033400344D34013401340034D3
:1033C0000034043401340034053401340134003451
:1033D0000134013401340134013402340134013444
:1033E000033401340134043401340134053401342C
:1033F0000234013406340334003404340334063414
:103400000134033407340134043400340134043407
:1034100001340134043406340134043407340134F3
:1034200005340034023405340234023405340434E3
:1034300001340534053402340534073401340634CC
:1034400000340234063402340134063403340134C7
:1034500006340434013406340534023406340734A7
:1034600001340734003401340734013401340734A3
:103470000234013407340334013407340434013492
:103480000734053401340734063401340734073473
:10349000013408340334013408340434013408346A
:1034A0000534013408340634013408340734013457
:1034B000683410348C340A343034753406340334B0
:0634C000EC344934323403
:1035DA0028001715080002302000E9000800123000
:1035EA00210097000800F0007008220099000800E6
:1035FA00843022009800990108006400800101319A
:10360A00890B032B0034E23021009E009B019C01B0
:10361A0001309D000800FF3020009B009A019110A4
:10362A0006309C000800F930280096009501200019
:10363A0093107F30280097000800083405340334BB
:10364A0008340534033408340534033401340134AE
:10365A00F00070082300910015139513151400004B
:10366A0000002300130808002000130C0139F000A1
:10367A0070080319412B422B432B93107008080042
:10368A0070302100990098012200960121001A1F2A
:10369A004F2B502B4B2B080024001508F039083803
:1036AA0095009516133092000D30890B5A2B0000A5
:1036BA000800F1007108F000F00DF00D21001D085E
:1036CA007006833970069D001D1408001030210011
:1036DA003102683003193002031C742B762B013037
:1036EA00772B0030080000309A31F8229B311E30C7
:1036FA009B315E239B3100320032003200320800D7
:10370A00F10021005C08F0007135890A8D2BF03632
:10371A00890B8C2B7008033908000A302100330208
:10372A008D300319320203189B2B9D2B01309E2BDF
:10373A00003008000F302500930095018030940076
:10374A001D30960092019101FC309E05080003305D
:10375A0020006805F00021005C08F1000230F13514
:10376A00890BB42B71087004DC000800F0000130EA
:10377A00F100023070020318C32BC42BC52BCB2BCC
:10378A000314710DF1000130F002BE2B710808001C
:10379A00F200F101721CD22BD32BD52B7008F10742
:1037AA000310F00D0310F20C7208031DDD2BDE2B43
:1037BA00CF2B710808002000911124001615200053
:1037CA00E50120009119EA2BEB2BF32B9D31A32560
:1037DA009B31003A0319F22BF32BE62B0800200049
:1037EA009111240016142000E50120009119FE2BE6
:1037FA00FF2B072C9D31A3259B31003A0319062C78
:10380A00072CFA2B08002000911124009616161690
:10381A002000E50120009119132C142C1C2C9D3139
:10382A00A3259C31003A03191B2C1C2C0F2C0800D1
:10383A00FA007A08F5007A085F3EF600F701F70AFF
:10384A0050309C318C249C312000E7047A085F3E7A
:10385A008600013087000108080020009111240029
:10386A0096152000E501200091193C2C3D2C452C91
:10387A009D31A3259C31003A0319442C452C382C40
:10388A00240011080800F00020009111700824009B
:10389A0091002000E50120009119542C552C5D2C33
:1038AA009D31A3259C31003A03195C2C5D2C502CC8
:1038BA0008007108F3007008F200F336F20CF336D0
:1038CA00F20C72082500910070080339F2000430E6
:1038DA00F235890B6D2C1308CF3972049300080056
:1038EA002000A6009B3178239C31200026089C31B9
:1038FA00F1249C317108FD007008FC009E311026ED
:10390A009C317D082000A5007C08A4000800F8006E
:10391A007508F10078089D31C5259C31F9007908B0
:10392A000319982C992C9B2C7908A32C7608F10062
:10393A007708F2007808913156219C310800C0308E
:10394A0022008C0008308D003F3021008C00F730B7
:10395A008D00F63023008D001F308C0024008D016D
:10396A008C01210095170E3022009D009E0108004F
:10397A009C31A4249C319B3145239C319A31F422F9
:10398A009C319A31FD229C319B3108239C319B3119
:10399A009F239C319B3118239C319B3110239C31EE
:1039AA000800F8007508F10078089D31C5259C319A
:1039BA00F90079080319E22CE32CE52C7908F02C9C
:1039CA0001302100E1007608F1007708F20078085A
:1039DA00913110219C310800F3007308F200F20DB6
:1039EA00F20D21001D087206833972069D001D140E
:1039FA000D30890BFE2C000021009D149D18062D08
:103A0A00072D032D1C08F1001B08F0000800FF30E9
:103A1A00F4000330F50000309D3182259D312000ED
:103A2A00D8010030D7000030D6000030D500003071
:103A3A00D400D3010030D2000030D1000030D000D1
:103A4A000030CF00080025001308F2000430F236D7
:103A5A00890B2C2D72080339F300F4011108F500C3
:103A6A00F601F535F60DF535F60D73087504F70010
:103A7A0074087604F8007708F0007808F100080066
:103A8A00F100710823009100700893009513151333
:103A9A0015150B0D0B0D0139F2008B1355309600DD
:103AAA00AA309600951495185B2D5C2D582D15118A
:103ABA00720C031C8B1303188B170800F401F50111
:103ACA00701C682D692D6D2D7208F4077308F53D79
:103ADA000130F235F30D890B6E2D0130F136F00C01
:103AEA00890B732D70087104031D7C2D7D2D652DA6
:103AFA007508F1007408F0000800F6007508F10076
:103B0A007408F0009C315E249D3176188D2D902D1D
:103B1A0025009615922D25009611F618952D982DAB
:103B2A00250016149A2D2500161076199D2DA02D04
:103B3A0025001615A22D2500161108002400161FAF
:103B4A00A72DA82DAA2D0130C42D951FAD2DAE2D60
:103B5A00AF2DA82D151FB22DB32DB42DA82D2000E1
:103B6A00921DB82DB92DBA2DA82DFB306502031C64
:103B7A00BF2DC02DC12DA82D0130E507003008004A
:103B8A00F2009B31F4239D319E31E8269D31F300EA
:103B9A0073080319D12DD22DD42D7308E92D72087B
:103BAA009C3148249D319E31E8269D31F3007308EB
:103BBA000319E02DE12DE22DD22D71089C31482404
:103BCA009D319E31E8269D310800093090319020C0
:103BDA009D3120002B08B6002A08B5000730F000F6
:103BEA000030F1001E30B1000530B2003508310254
:103BFA00B3003608323BB4003335F200340DF3001B
:103C0A00923194229D317008193E2000AF00003095
:103C1A00713DB00008007C08F0007D08F100F20157
:103C2A00F3010030F7000030F6000930F500C43027
:103C3A00F4009E31B5269E3170082000A00071085C
:103C4A00A1007208A2007308A3000A30A336A20CCE
:103C5A00A10CA00C890B2B2E2108FD002008FC00CA
:103C6A0008000830903190209E3120002B08B100C6
:103C7A002A08B00001309C3175249E3120002508A5
:103C8A00B3002408B20032083002B4003308313BD2
:103C9A00B5003508803AAF0080302F02031D572E39
:103CAA0065303402031C5A2E5B2E5D2E00305E2EC8
:103CBA000130080007309C3175249E312000250808
:103CCA00A8002408A70005302802DD3003192702BE
:103CDA00031C702E712E732E0230882E0530280296
:103CEA00DC300319270203187B2E7C2E872E013025
:103CFA002802913003192702031C842E852E872E51
:103D0A000130882E0030080072088400730885008C
:103D1A000008F60001307207840073080318013E98
:103D2A0085000008F7000230720784007308031840
:103D3A00013E85000008F80078089B31BB239E31BC
:103D4A00F40076085F3E8600013087000108F5001E
:103D5A00770AB02EF536890BAF2E75087405080060
:103D6A000030FB000030FA000030F9000030F800A3
:103D7A00701CC02EC12EC92E7408F8077508F93DAB
:103D8A007608FA3D7708FB3D0130F435F50DF60D5E
:103D9A00F70D890BCA2E0130F336F20CF10CF00C38
:103DAA00890BD12E7308720471047004031DDE2E70
:103DBA00DF2EBD2E7B08F3007A08F2007908F100A5
:103DCA007808F00008002400161FEC2EED2EF22EC3
:103DDA009B31E0239E3101301D2F951FF52EF62EC3
:103DEA00FC2E95139B31E0239E3102301D2F151FA7
:103DFA00FF2E002F062F15139B31E0239E3104302E
:103E0A001D2F2000921D0A2F0B2F112F92119B316B
:103E1A00E0239E3108301D2FFB306502031C162F4C
:103E2A00172F1C2F9B31E0239E3110301D2F00309D
:103E3A000800C4302000A0000D30A1000030A2000C
:103E4A000030A3007C08A4007D08A500A601A701F4
:103E5A002435F000250DF100260DF200270DF300A0
:103E6A000030F7000030F6000930F500C430F400E5
:103E7A009E31B5269F3170082000A0077108A13D28
:103E8A007208A23D7308A33D0B30A336A20CA10C05
:103E9A00A00C890B4A2F2108FD002008FC0008000D
:103EAA00FE30F2009930F3009E3189269F31003AA4
:103EBA000319602F612F792F0130F2009A30F30035
:103ECA009E3189269F31003A03196C2F6D2F792F65
:103EDA003130F2009A30F3009E3189269F31003A40
:103EEA00031D782F792F8B2F6C30F9000030FA00E0
:103EFA00803190209F319B3151239F3195316E251E
:103F0A009F3107302000E90001308C2F0030080073
:103F1A009B3178239F3100309C31F1249F31710805
:103F2A002000A5007008A4002408F0002508F1006C
:103F3A00F201F3010030F7002630F6002530F500D3
:103F4A00A030F4009E31B5269F3170082000A000F1
:103F5A007108A1007208A2007308A3000A30A336F0
:103F6A00A20CA10CA00C890BB42F0130A336A20C11
:103F7A00A10CA00C890BBB2F2108FD002008FC0016
:103F8A000800FB01FC01760877040319CD2FCE2F18
:103F9A00FB2F0130FA00D82F0130F635F70D890BC7
:103FAA00D22F0130FA07F71FDB2FDC2FD12F013078
:103FBA00FB35FC0D890BDD2F77087902031DE72FEE
:103FCA0076087802031CEA2FEB2FF02F7608F80206
:103FDA007708F93B7B140130F736F60C890BF12F81
:103FEA000130FA02031DFA2FFB2FDC2F7C08F700A1
:063FFA007B08F600080040
:020000040001F9
:04000E007C3EFF3FF6
:10E00000540069006E0066006500760065007200CD
:10E010002000460055002D004400790073006F0079
:10E020006E002D0042004D005300200056003100CC
:10E0300000002000000000000000000000000000C0
:00000001FF
